:100000000C9434000C9451000C9451000C94510049
:100010000C9451000C9451000C9451000C9451001C
:100020000C9451000C9451000C9451000C9451000C
:100030000C9451000C9451000C9451000C945100FC
:100040000C9451000C9451000C941A010C94510022
:100050000C9451000C9451000C9451000C945100DC
:100060000C9451000C94510011241FBECFEFD8E026
:10007000DEBFCDBF11E0A0E0B1E0E4E5F3E002C0F7
:1000800005900D92AC30B107D9F721E0ACE0B1E0BA
:1000900001C01D92AE31B207E1F70E940B010C9432
:1000A000A8010C94000025B12F70982F907F292B68
:1000B00030E03595279535952795359527953595D4
:1000C000279525B92D982C9A95E09A95F1F700007F
:1000D0002C98EFE1F3E03197F1F700C0000095B103
:1000E00085B92D982C9AF5E0FA95F1F700002C9837
:1000F0008FE79EE30197F1F700C00000089525B156
:100100002F70982F907F292B30E0359527953595C6
:100110002795359527953595279525B92D9A2C9AAC
:1001200095E09A95F1F700002C98EFE1F3E0319714
:10013000F1F700C0000095B185B92D9A2C9AF5E031
:10014000FA95F1F700002C988FED9EE20197F1F7F8
:1001500000C000000895CF93DF93C82FD92F888166
:10016000882331F021960E947F0089918111FBCF75
:10017000DF91CF9108958FEF84B92FEF86E791E05B
:10018000215080409040E1F700C0000082E00E94D2
:10019000530080E20E9453008CE00E94530086E0EE
:1001A0000E94530081E00E9453002FEF83EC99E0FE
:1001B000215080409040E1F700C000000895CF93A7
:1001C000DF93D42FC52F81110FC060313CF08D2FEC
:1001D0009C2F0E94AB00DF91CF9108956F70862F06
:1001E00080680E945300F3CF813089F760317CF73B
:1001F0006F70862F806C0E945300E9CF81E00E94CF
:1002000053008FE39FE10197F1F700C0000080E801
:100210000E94530008950E947C010E94BB00E1EC03
:10022000F0E0808180688083789480E091E00E9493
:100230009801FFCF1F920F920FB60F9211242F93A8
:100240003F934F935F936F937F938F939F93AF935E
:10025000BF93EF93FF9380911D01882391F1EEE00E
:10026000F1E02DE131E081818193E217F307D9F7C5
:100270008091C60080931D0181E00E9453008EE0B2
:1002800091E00E94AB002FEF85EA9EE02150804074
:100290009040E1F700C0000087E091E00E949801E3
:1002A000FF91EF91BF91AF919F918F917F916F914E
:1002B0005F914F913F912F910F900FBE0F901F9024
:1002C00018950E94FE008091C60020910C0130918B
:1002D0000D01F901E25FFE4F80832F5F3F4F3093A6
:1002E0000D0120930C0180E9821B0E9453008EE0D7
:1002F00091E00E94AB00C7CF1092C50087E68093C3
:10030000C40088E18093C10086E08093C200089514
:10031000E0ECF0E080818823ECF78091C60008953E
:10032000E0ECF0E0908195FFFDCF8093C60008954A
:10033000CF93DF93C82FD92F8881882331F021965E
:100340000E94900189918111FBCFDF91CF91089597
:04035000F894FFCF4F
:0C035400526561647921004F4B210000CC
:00000001FF
