:100000000C9434000C9451000C9451000C94510049
:100010000C9451000C9451000C9451000C9451001C
:100020000C9451000C9451000C9451000C9451000C
:100030000C9451000C9451000C9451000C945100FC
:100040000C9451000C9451000C9419100C94510014
:100050000C9451000C9451000C9451000C945100DC
:100060000C9451000C94510011241FBECFEFD8E026
:10007000DEBFCDBF11E0A0E0B1E0E6E4F6E202C0F1
:1000800005900D92AC30B107D9F721E0ACE0B1E0BA
:1000900001C01D92AE31B207E1F70E9402100C942C
:1000A00021130C9400000F931F93CF93DF93CDB7D0
:1000B000DEB7CB5FD1090FB6F894DEBF0FBECDBF60
:1000C0009E0121593F4FD9018C9385E290E0FC01BC
:1000D0008081882F90E09C012F703327CE018159B9
:1000E0009F4FDC018C91882F90E0807F9927822B95
:1000F000932B9C01359527953595279585E290E0C2
:10010000FC01208385E290E0DC012C9185E290E007
:100110002E7FFC01208385E290E0DC012C9185E2BA
:1001200090E02260FC0120839E01215B3F4F80E034
:1001300090E0A0E8BFE3F90180839183A283B383B9
:100140008E010D5A1F4FCE01815B9F4F2BEA3AEA79
:100150004AEA50E4DC016D917D918D919C910E9461
:10016000B412C058DF4F688379838A839B83C05859
:10017000D040C058DF4F88819981AA81BB81C05887
:10018000D040F80180839183A283B3838E01095A02
:100190001F4FCE01815B9F4F20E030E040E850E4EC
:1001A000DC016D917D918D919C910E94B412CC5790
:1001B000DF4F688379838A839B83C458D040CC57B0
:1001C000DF4F88819981AA81BB81C458D040F80152
:1001D00080839183A283B383CE018D5A9F4F20E009
:1001E00030E040E85FE3DC016D917D918D919C9161
:1001F0000E94941188233CF4CE01855A9F4F21E040
:10020000FC01208399C1CE01895A9F4F20E03FEF26
:100210004FE757E4DC016D917D918D919C910E9497
:10022000AF1218160CF022C1CE01815B9F4F20E067
:1002300030E04AE754E4FC0160817181828193815E
:100240000E949911C857DF4F688379838A839B8303
:10025000C858D040C857DF4F88819981AA81BB8197
:10026000C858D0409E01245A3F4FF90180839183A2
:10027000A283B3838E01005A1F4FCE01845A9F4F31
:1002800020E030E04AE755E4DC016D917D918D91ED
:100290009C910E94B412C457DF4F688379838A838C
:1002A0009B83CC58D040C457DF4F88819981AA8165
:1002B000BB81CC58D040F80180839183A283B38363
:1002C000CE01805A9F4F20E030E040E85FE3DC0140
:1002D0006D917D918D919C910E94941188234CF495
:1002E000CE018C599F4F21E030E0FC013183208307
:1002F000A2C0CE01805A9F4F20E03FEF4FE757E466
:10030000DC016D917D918D919C910E94AF12181628
:100310000CF073C0CE01845A9F4F20E030E040E2E1
:1003200051E4FC0160817181828193810E94B41249
:10033000C057DF4F688379838A839B83C059D0403D
:10034000C057DF4F88819981AA81BB81C059D040B5
:10035000C458DF4F88839983AA83BB83CC57D0408E
:100360008E010C591F4FC458DF4F688179818A81F3
:100370009B81CC57D0400E940B12CC56DF4F688334
:1003800079838A839B83C459D040CC56DF4FE88160
:10039000F981C459D040D801ED93FC9325C0CE011A
:1003A0008A599F4F20E931E0DC012D933C93CE0127
:1003B0008A599F4FFC01808191810197F1F79E013D
:1003C0002A593F4FD9018D939C930000CE018C593F
:1003D0009F4F9E012C593F4FF901208131812150BF
:1003E0003109DC012D933C93CE018C599F4FFC01C8
:1003F00080819181892B99F69FC08E010C591F4FE6
:10040000CE01805A9F4FDC016D917D918D919C9121
:100410000E940B12C856DF4F688379838A839B83BF
:10042000C859D040C856DF4F88819981C859D040FB
:10043000F80191838083CE0188599F4F9E012C59EA
:100440003F4FD9012D913C91FC0131832083CE0196
:1004500088599F4FDC018D919C910197F1F79E0186
:1004600028593F4FF9019183808366C0CE018D5A90
:100470009F4F20E030E04FE753E4DC016D917D9128
:100480008D919C910E94AF121816D4F58E010659D9
:100490001F4FCE01895A9F4FFC016081718182817B
:1004A00093810E940B12C456DF4F688379838A833D
:1004B0009B83CC59D040C456DF4FE881F981CC5999
:1004C000D040D801ED93FC93CE0184599F4F9E01FB
:1004D00026593F4FD9012D913C91FC013183208356
:1004E000CE0184599F4FDC018D919C910197F1F7CA
:1004F0009E0124593F4FF90191838083000034C04D
:100500008E01055A1F4FCE018D5A9F4FDC016D9110
:100510007D918D919C910E940B12C056DF4F688394
:1005200079838A839B83C05AD040C056DF4F88812D
:10053000C05AD040F8018083CE0182599F4F9E015E
:10054000255A3F4FD9012C91FC012083CE018259BD
:100550009F4FDC018C91282F2A95F1F7CE0182590B
:100560009F4FFC012083000085E290E0DC012C918C
:1005700085E290E02D7FFC01208380E090E0A8E4FC
:10058000B3E48FA798ABA9ABBAAB2BEA3AEA4AEA35
:1005900050E46FA578A989A99AA90E94B412CC55F4
:1005A000DF4F688379838A839B83C45AD040CC55BC
:1005B000DF4F88819981AA81BB81C45AD0408BAB1F
:1005C0009CABADABBEAB20E030E040E850E46FA5A3
:1005D00078A989A99AA90E94B412C855DF4F6883E7
:1005E00079838A839B83C85AD040C855DF4F88815E
:1005F0009981AA81BB81C85AD0408FAB98AFA9AF6F
:10060000BAAF20E030E040E85FE36BA97CA98DA998
:100610009EA90E94941188231CF481E08BAF71C1C4
:1006200020E03FEF4FE757E46FA978AD89AD9AAD71
:100630000E94AF1218160CF00EC120E030E04AE71D
:1006400054E46FA578A989A99AA90E949911C45563
:10065000DF4F688379838A839B83CC5AD040C4550B
:10066000DF4F88819981AA81BB81CC5AD0408CAF61
:100670009DAFAEAFBFAF8E01005C1F4F20E030E0FA
:100680004AE755E46CAD7DAD8EAD9FAD0E94B412CE
:10069000C055DF4F688379838A839B83C05BD040DA
:1006A000C055DF4F88819981AA81BB81C05BD04052
:1006B000F80180839183A283B383CE01805C9F4F36
:1006C00020E030E040E85FE3DC016D917D918D91A9
:1006D0009C910E94941188234CF4CE018C5B9F4F17
:1006E00021E030E0FC01318320839AC0CE01805CA0
:1006F0009F4F20E03FEF4FE757E4DC016D917D9184
:100700008D919C910E94AF1218160CF06BC020E0E6
:1007100030E040E251E46CAD7DAD8EAD9FAD0E9406
:10072000B412CC54DF4F688379838A839B83C45B84
:10073000D040CC54DF4F88819981AA81BB81C45BB2
:10074000D040EC968CAF9DAFAEAFBFAFEC978E01B3
:100750000C5B1F4FEC966CAD7DAD8EAD9FADEC97F5
:100760000E940B12C854DF4F688379838A839B836E
:10077000C85BD040C854DF4FE881F981C85BD040E6
:10078000D801ED93FC9325C0CE018A5B9F4F20E9F1
:1007900031E0DC012D933C93CE018A5B9F4FFC013D
:1007A000808191810197F1F79E012A5B3F4FD9012A
:1007B0008D939C930000CE018C5B9F4F9E012C5B20
:1007C0003F4FF9012081318121503109DC012D9306
:1007D0003C93CE018C5B9F4FFC0180819181892BE2
:1007E00099F68FC08E010C5B1F4FCE01805C9F4F2E
:1007F000DC016D917D918D919C910E940B12C454EE
:10080000DF4F688379838A839B83CC5BD040C45459
:10081000DF4F88819981CC5BD040F8019183808340
:10082000CE01885B9F4F9E012C5B3F4FD9012D91DC
:100830003C91FC0131832083CE01885B9F4FDC011A
:100840008D919C910197F1F79E01285B3F4FF90133
:100850009183808356C020E030E04FE753E46BA9DA
:100860007CA98DA99EA90E94AF121816B4F58E011D
:10087000065B1F4F6FA978AD89AD9AAD0E940B1230
:10088000C054DF4F688379838A839B83C05CD040E8
:10089000C054DF4FE881F981C05CD040D801ED93AE
:1008A000FC93CE01845B9F4F9E01265B3F4FD90195
:1008B0002D913C91FC0131832083CE01845B9F4FBD
:1008C000DC018D919C910197F1F79E01245B3F4FD4
:1008D000F90191838083000028C06BA97CA98DA9B0
:1008E0009EA90E940B12CC53DF4F688379838A83C1
:1008F0009B83C45CD040CC53DF4FF881C45CD040B4
:10090000FBAFCE01825B9F4F2BADDC012C93CE0160
:10091000825B9F4FFC018081282F2A95F1F7CE0141
:10092000825B9F4FDC012C93000085E290E0FC018C
:100930008081882F90E09C012F703327CE01815950
:100940009F4FDC018C91882F90E082959295907F4B
:100950009827807F9827822B932B9C01359527958C
:100960003595279585E290E0FC01208385E290E0B3
:10097000DC012C9185E290E02E7FFC01208385E252
:1009800090E0DC012C9185E290E02260FC01208364
:1009900080E090E0A0E8BFE38F87988BA98BBA8BAB
:1009A0002BEA3AEA4AEA50E46F85788989899A897C
:1009B0000E94B412C853DF4F688379838A839B8374
:1009C000C85CD040C853DF4F88819981AA81BB8120
:1009D000C85CD0408B8B9C8BAD8BBE8B20E030E015
:1009E00040E850E46F85788989899A890E94B41219
:1009F000C453DF4F688379838A839B83CC5CD04068
:100A0000C453DF4F88819981AA81BB81CC5CD040DF
:100A10008F8B988FA98FBA8F20E030E040E85FE39A
:100A20006B897C898D899E890E94941188231CF48E
:100A300081E08B8F18C120E03FEF4FE757E46F89CB
:100A4000788D898D9A8D0E94AF1218160CF0C9C04E
:100A500020E030E04AE754E46F85788989899A89F3
:100A60000E949911C053DF4F688379838A839B83E7
:100A7000C05DD040C053DF4F88819981AA81BB817E
:100A8000C05DD0408C8F9D8FAE8FBF8F20E030E057
:100A90004AE755E46C8D7D8D8E8D9F8D0E94B4123A
:100AA000CC52DF4F688379838A839B83C45DD040B7
:100AB000CC52DF4F88819981AA81BB81C45DD0402F
:100AC00088A399A3AAA3BBA320E030E040E85FE39A
:100AD00068A179A18AA19BA10E94941188232CF47A
:100AE00081E090E09DA38CA371C020E03FEF4FE731
:100AF00057E468A179A18AA19BA10E94AF121816A0
:100B00000CF04EC020E030E040E251E46C8D7D8D71
:100B10008E8D9F8D0E94B412C852DF4F68837983F7
:100B20008A839B83C85DD040C852DF4F88819981FA
:100B3000AA81BB81C85DD040E8968CAF9DAFAEAFB7
:100B4000BFAFE897E8966CAD7DAD8EAD9FADE897F1
:100B50000E940B12C452DF4F688379838A839B8380
:100B6000CC5DD040C452DF4FA881B981CC5DD0406C
:100B7000BDA3ACA310C080E991E09FA38EA38EA17A
:100B80009FA10197F1F79FA38EA300008CA19DA1C7
:100B900001979DA38CA38CA19DA1892B61F763C0B4
:100BA00068A179A18AA19BA10E940B12C052DF4FBC
:100BB000688379838A839B83C05ED040C052DF4FB5
:100BC000E881F981C05ED040FDA3ECA38CA19DA17A
:100BD00099A788A788A599A50197F1F799A788A74C
:100BE00042C020E030E04FE753E46B897C898D8977
:100BF0009E890E94AF12181614F56F89788D898D21
:100C00009A8D0E940B12CC51DF4F688379838A83BF
:100C10009B83C45ED040CC51DF4F88819981C45EF4
:100C2000D0409BA78AA78AA59BA59DA78CA78CA52A
:100C30009DA50197F1F79DA78CA700001BC06B89AC
:100C40007C898D899E890E940B12C851DF4F688371
:100C500079838A839B83C85ED040C851DF4F9881D7
:100C6000C85ED0409B8F8B8D8EA78EA58A95F1F79D
:100C70008EA7000085E290E0DC012C9185E290E0F7
:100C80002D7FFC01208380E090E0A0E0B0E4898328
:100C90009A83AB83BC8320E030E04AE755E4698166
:100CA0007A818B819C810E94B412C451DF4F68838A
:100CB00079838A839B83CC5ED040C451DF4F888187
:100CC0009981AA81BB81CC5ED0408D839E83AF8306
:100CD000B88720E030E040E85FE36D817E818F815E
:100CE00098850E94941188232CF481E090E09A87E3
:100CF000898771C020E03FEF4FE757E46D817E8127
:100D00008F8198850E94AF1218160CF04EC020E01B
:100D100030E040E251E469817A818B819C810E94BC
:100D2000B412C051DF4F688379838A839B83C05F8D
:100D3000D040C051DF4F88819981AA81BB81C05FBB
:100D4000D040E4968CAF9DAFAEAFBFAFE497E496D2
:100D50006CAD7DAD8EAD9FADE4970E940B12CC5073
:100D6000DF4F688379838A839B83C45FD040CC50F4
:100D7000DF4FA881B981C45FD040BA87A98710C06E
:100D800080E991E09C878B878B859C850197F1F7A3
:100D90009C878B87000089859A8501979A87898728
:100DA00089859A85892B61F721C06D817E818F812C
:100DB00098850E940B12C850DF4F688379838A831D
:100DC0009B83C85FD040C850DF4FE881F981C85F7E
:100DD000D040FA87E98789859A859E878D878D859A
:100DE0009E850197F1F79E878D8700000000C55012
:100DF000DF4F0FB6F894DEBF0FBECDBFDF91CF91AE
:100E00001F910F9108950F931F93CF93DF93CDB749
:100E1000DEB7CB5FD1090FB6F894DEBF0FBECDBFF2
:100E20009E0121593F4FD9018C9385E290E0FC014E
:100E30008081882F90E09C012F703327CE0181594B
:100E40009F4FDC018C91882F90E0807F9927822B27
:100E5000932B9C01359527953595279585E290E054
:100E6000FC01208385E290E0DC012C9185E290E09A
:100E70002160FC01208385E290E0DC012C9185E279
:100E800090E02260FC0120839E01215B3F4F80E0C7
:100E900090E0A0E8BFE3F90180839183A283B3834C
:100EA0008E010D5A1F4FCE01815B9F4F2BEA3AEA0C
:100EB0004AEA50E4DC016D917D918D919C910E94F4
:100EC000B412C058DF4F688379838A839B83C058EC
:100ED000D040C058DF4F88819981AA81BB81C0581A
:100EE000D040F80180839183A283B3838E01095A95
:100EF0001F4FCE01815B9F4F20E030E040E850E47F
:100F0000DC016D917D918D919C910E94B412CC5722
:100F1000DF4F688379838A839B83C458D040CC5742
:100F2000DF4F88819981AA81BB81C458D040F801E4
:100F300080839183A283B383CE018D5A9F4F20E09B
:100F400030E040E85FE3DC016D917D918D919C91F3
:100F50000E94941188233CF4CE01855A9F4F21E0D2
:100F6000FC01208399C1CE01895A9F4F20E03FEFB9
:100F70004FE757E4DC016D917D918D919C910E942A
:100F8000AF1218160CF022C1CE01815B9F4F20E0FA
:100F900030E04AE754E4FC016081718182819381F1
:100FA0000E949911C857DF4F688379838A839B8396
:100FB000C858D040C857DF4F88819981AA81BB812A
:100FC000C858D0409E01245A3F4FF9018083918335
:100FD000A283B3838E01005A1F4FCE01845A9F4FC4
:100FE00020E030E04AE755E4DC016D917D918D9180
:100FF0009C910E94B412C457DF4F688379838A831F
:101000009B83CC58D040C457DF4F88819981AA81F7
:10101000BB81CC58D040F80180839183A283B383F5
:10102000CE01805A9F4F20E030E040E85FE3DC01D2
:101030006D917D918D919C910E94941188234CF427
:10104000CE018C599F4F21E030E0FC013183208399
:10105000A2C0CE01805A9F4F20E03FEF4FE757E4F8
:10106000DC016D917D918D919C910E94AF121816BB
:101070000CF073C0CE01845A9F4F20E030E040E274
:1010800051E4FC0160817181828193810E94B412DC
:10109000C057DF4F688379838A839B83C059D040D0
:1010A000C057DF4F88819981AA81BB81C059D04048
:1010B000C458DF4F88839983AA83BB83CC57D04021
:1010C0008E010C591F4FC458DF4F688179818A8186
:1010D0009B81CC57D0400E940B12CC56DF4F6883C7
:1010E00079838A839B83C459D040CC56DF4FE881F3
:1010F000F981C459D040D801ED93FC9325C0CE01AD
:101100008A599F4F20E931E0DC012D933C93CE01B9
:101110008A599F4FFC01808191810197F1F79E01CF
:101120002A593F4FD9018D939C930000CE018C59D1
:101130009F4F9E012C593F4FF90120813181215051
:101140003109DC012D933C93CE018C599F4FFC015A
:1011500080819181892B99F69FC08E010C591F4F78
:10116000CE01805A9F4FDC016D917D918D919C91B4
:101170000E940B12C856DF4F688379838A839B8352
:10118000C859D040C856DF4F88819981C859D0408E
:10119000F80191838083CE0188599F4F9E012C597D
:1011A0003F4FD9012D913C91FC0131832083CE0129
:1011B00088599F4FDC018D919C910197F1F79E0119
:1011C00028593F4FF9019183808366C0CE018D5A23
:1011D0009F4F20E030E04FE753E4DC016D917D91BB
:1011E0008D919C910E94AF121816D4F58E0106596C
:1011F0001F4FCE01895A9F4FFC016081718182810E
:1012000093810E940B12C456DF4F688379838A83CF
:101210009B83CC59D040C456DF4FE881F981CC592B
:10122000D040D801ED93FC93CE0184599F4F9E018D
:1012300026593F4FD9012D913C91FC0131832083E8
:10124000CE0184599F4FDC018D919C910197F1F75C
:101250009E0124593F4FF90191838083000034C0DF
:101260008E01055A1F4FCE018D5A9F4FDC016D91A3
:101270007D918D919C910E940B12C056DF4F688327
:1012800079838A839B83C05AD040C056DF4F8881C0
:10129000C05AD040F8018083CE0182599F4F9E01F1
:1012A000255A3F4FD9012C91FC012083CE01825950
:1012B0009F4FDC018C91282F2A95F1F7CE0182599E
:1012C0009F4FFC012083000085E290E0DC012C911F
:1012D00085E290E02D7FFC01208380E090E0A8E48F
:1012E000B3E48FA798ABA9ABBAAB2BEA3AEA4AEAC8
:1012F00050E46FA578A989A99AA90E94B412CC5587
:10130000DF4F688379838A839B83C45AD040CC554E
:10131000DF4F88819981AA81BB81C45AD0408BABB1
:101320009CABADABBEAB20E030E040E850E46FA535
:1013300078A989A99AA90E94B412C855DF4F688379
:1013400079838A839B83C85AD040C855DF4F8881F0
:101350009981AA81BB81C85AD0408FAB98AFA9AF01
:10136000BAAF20E030E040E85FE36BA97CA98DA92B
:101370009EA90E94941188231CF481E08BAF71C157
:1013800020E03FEF4FE757E46FA978AD89AD9AAD04
:101390000E94AF1218160CF00EC120E030E04AE7B0
:1013A00054E46FA578A989A99AA90E949911C455F6
:1013B000DF4F688379838A839B83CC5AD040C4559E
:1013C000DF4F88819981AA81BB81CC5AD0408CAFF4
:1013D0009DAFAEAFBFAF8E01005C1F4F20E030E08D
:1013E0004AE755E46CAD7DAD8EAD9FAD0E94B41261
:1013F000C055DF4F688379838A839B83C05BD0406D
:10140000C055DF4F88819981AA81BB81C05BD040E4
:10141000F80180839183A283B383CE01805C9F4FC8
:1014200020E030E040E85FE3DC016D917D918D913B
:101430009C910E94941188234CF4CE018C5B9F4FA9
:1014400021E030E0FC01318320839AC0CE01805C32
:101450009F4F20E03FEF4FE757E4DC016D917D9116
:101460008D919C910E94AF1218160CF06BC020E079
:1014700030E040E251E46CAD7DAD8EAD9FAD0E9499
:10148000B412CC54DF4F688379838A839B83C45B17
:10149000D040CC54DF4F88819981AA81BB81C45B45
:1014A000D040EC968CAF9DAFAEAFBFAFEC978E0146
:1014B0000C5B1F4FEC966CAD7DAD8EAD9FADEC9788
:1014C0000E940B12C854DF4F688379838A839B8301
:1014D000C85BD040C854DF4FE881F981C85BD04079
:1014E000D801ED93FC9325C0CE018A5B9F4F20E984
:1014F00031E0DC012D933C93CE018A5B9F4FFC01D0
:10150000808191810197F1F79E012A5B3F4FD901BC
:101510008D939C930000CE018C5B9F4F9E012C5BB2
:101520003F4FF9012081318121503109DC012D9398
:101530003C93CE018C5B9F4FFC0180819181892B74
:1015400099F68FC08E010C5B1F4FCE01805C9F4FC0
:10155000DC016D917D918D919C910E940B12C45480
:10156000DF4F688379838A839B83CC5BD040C454EC
:10157000DF4F88819981CC5BD040F80191838083D3
:10158000CE01885B9F4F9E012C5B3F4FD9012D916F
:101590003C91FC0131832083CE01885B9F4FDC01AD
:1015A0008D919C910197F1F79E01285B3F4FF901C6
:1015B0009183808356C020E030E04FE753E46BA96D
:1015C0007CA98DA99EA90E94AF121816B4F58E01B0
:1015D000065B1F4F6FA978AD89AD9AAD0E940B12C3
:1015E000C054DF4F688379838A839B83C05CD0407B
:1015F000C054DF4FE881F981C05CD040D801ED9341
:10160000FC93CE01845B9F4F9E01265B3F4FD90127
:101610002D913C91FC0131832083CE01845B9F4F4F
:10162000DC018D919C910197F1F79E01245B3F4F66
:10163000F90191838083000028C06BA97CA98DA942
:101640009EA90E940B12CC53DF4F688379838A8353
:101650009B83C45CD040CC53DF4FF881C45CD04046
:10166000FBAFCE01825B9F4F2BADDC012C93CE01F3
:10167000825B9F4FFC018081282F2A95F1F7CE01D4
:10168000825B9F4FDC012C93000085E290E0FC011F
:101690008081882F90E09C012F703327CE018159E3
:1016A0009F4FDC018C91882F90E082959295907FDE
:1016B0009827807F9827822B932B9C01359527951F
:1016C0003595279585E290E0FC01208385E290E046
:1016D000DC012C9185E290E02160FC01208385E211
:1016E00090E0DC012C9185E290E02260FC012083F7
:1016F00080E090E0A0E8BFE38F87988BA98BBA8B3E
:101700002BEA3AEA4AEA50E46F85788989899A890E
:101710000E94B412C853DF4F688379838A839B8306
:10172000C85CD040C853DF4F88819981AA81BB81B2
:10173000C85CD0408B8B9C8BAD8BBE8B20E030E0A7
:1017400040E850E46F85788989899A890E94B412AB
:10175000C453DF4F688379838A839B83CC5CD040FA
:10176000C453DF4F88819981AA81BB81CC5CD04072
:101770008F8B988FA98FBA8F20E030E040E85FE32D
:101780006B897C898D899E890E94941188231CF421
:1017900081E08B8F18C120E03FEF4FE757E46F895E
:1017A000788D898D9A8D0E94AF1218160CF0C9C0E1
:1017B00020E030E04AE754E46F85788989899A8986
:1017C0000E949911C053DF4F688379838A839B837A
:1017D000C05DD040C053DF4F88819981AA81BB8111
:1017E000C05DD0408C8F9D8FAE8FBF8F20E030E0EA
:1017F0004AE755E46C8D7D8D8E8D9F8D0E94B412CD
:10180000CC52DF4F688379838A839B83C45DD04049
:10181000CC52DF4F88819981AA81BB81C45DD040C1
:1018200088A399A3AAA3BBA320E030E040E85FE32C
:1018300068A179A18AA19BA10E94941188232CF40C
:1018400081E090E09DA38CA371C020E03FEF4FE7C3
:1018500057E468A179A18AA19BA10E94AF12181632
:101860000CF04EC020E030E040E251E46C8D7D8D04
:101870008E8D9F8D0E94B412C852DF4F688379838A
:101880008A839B83C85DD040C852DF4F888199818D
:10189000AA81BB81C85DD040E8968CAF9DAFAEAF4A
:1018A000BFAFE897E8966CAD7DAD8EAD9FADE89784
:1018B0000E940B12C452DF4F688379838A839B8313
:1018C000CC5DD040C452DF4FA881B981CC5DD040FF
:1018D000BDA3ACA310C080E991E09FA38EA38EA10D
:1018E0009FA10197F1F79FA38EA300008CA19DA15A
:1018F00001979DA38CA38CA19DA1892B61F763C047
:1019000068A179A18AA19BA10E940B12C052DF4F4E
:10191000688379838A839B83C05ED040C052DF4F47
:10192000E881F981C05ED040FDA3ECA38CA19DA10C
:1019300099A788A788A599A50197F1F799A788A7DE
:1019400042C020E030E04FE753E46B897C898D8909
:101950009E890E94AF12181614F56F89788D898DB3
:101960009A8D0E940B12CC51DF4F688379838A8352
:101970009B83C45ED040CC51DF4F88819981C45E87
:10198000D0409BA78AA78AA59BA59DA78CA78CA5BD
:101990009DA50197F1F79DA78CA700001BC06B893F
:1019A0007C898D899E890E940B12C851DF4F688304
:1019B00079838A839B83C85ED040C851DF4F98816A
:1019C000C85ED0409B8F8B8D8EA78EA58A95F1F730
:1019D0008EA7000085E290E0DC012C9185E290E08A
:1019E0002D7FFC01208380E090E0A0E0B0E48983BB
:1019F0009A83AB83BC8320E030E04AE755E46981F9
:101A00007A818B819C810E94B412C451DF4F68831C
:101A100079838A839B83CC5ED040C451DF4F888119
:101A20009981AA81BB81CC5ED0408D839E83AF8398
:101A3000B88720E030E040E85FE36D817E818F81F0
:101A400098850E94941188232CF481E090E09A8775
:101A5000898771C020E03FEF4FE757E46D817E81B9
:101A60008F8198850E94AF1218160CF04EC020E0AE
:101A700030E040E251E469817A818B819C810E944F
:101A8000B412C051DF4F688379838A839B83C05F20
:101A9000D040C051DF4F88819981AA81BB81C05F4E
:101AA000D040E4968CAF9DAFAEAFBFAFE497E49665
:101AB0006CAD7DAD8EAD9FADE4970E940B12CC5006
:101AC000DF4F688379838A839B83C45FD040CC5087
:101AD000DF4FA881B981C45FD040BA87A98710C001
:101AE00080E991E09C878B878B859C850197F1F736
:101AF0009C878B87000089859A8501979A878987BB
:101B000089859A85892B61F721C06D817E818F81BE
:101B100098850E940B12C850DF4F688379838A83AF
:101B20009B83C85FD040C850DF4FE881F981C85F10
:101B3000D040FA87E98789859A859E878D878D852C
:101B40009E850197F1F79E878D8700000000C550A4
:101B5000DF4F0FB6F894DEBF0FBECDBFDF91CF9140
:101B60001F910F910895CF93DF93CDB7DEB7C45483
:101B7000D1090FB6F894DEBF0FBECDBF84E290E06E
:101B80002FEFDC012C9380E090E0A0EAB1E48F8796
:101B9000988BA98BBA8B20E030E04AE755E46F853B
:101BA000788989899A890E94B4126DA37EA38FA334
:101BB00098A78DA19EA1AFA1B8A58B8B9C8BAD8B57
:101BC000BE8B20E030E040E85FE36B897C898D8943
:101BD0009E890E94941188232CF481E090E0988FD4
:101BE0008F8B54C020E03FEF4FE757E46B897C892F
:101BF0008D899E890E94AF121816D4F520E030E03E
:101C000040E251E46F85788989899A890E94B412EB
:101C100069A77AA78BA79CA789A59AA5ABA5BCA500
:101C200089A39AA3ABA3BCA369A17AA18BA19CA110
:101C30000E940B126DA77EA78FA798ABADA5BEA57E
:101C4000B88FAF8B10C080E991E09A8F898F898D12
:101C50009A8D0197F1F79A8F898F00008F89988D5F
:101C60000197988F8F8B8F89988D892B61F719C079
:101C70006B897C898D899E890E940B1269AB7AAB36
:101C80008BAB9CABE9A9FAA9F88FEF8B8F89988D64
:101C90009C8F8B8F8B8D9C8D0197F1F79C8F8B8FF9
:101CA000000082E00E94530080E20E9453008CE01A
:101CB0000E94530086E00E94530081E00E9453007E
:101CC00080E090E0A8E4B3E489839A83AB83BC838B
:101CD00020E030E04AE755E469817A818B819C817C
:101CE0000E94B4126DAB7EAB8FAB98AF8DA99EA94D
:101CF000AFA9B8AD8D839E83AF83B88720E030E075
:101D000040E85FE36D817E818F8198850E94941108
:101D100088232CF481E090E09A8789875BC020E0DB
:101D20003FEF4FE757E46D817E818F8198850E9458
:101D3000AF1218160CF03CC020E030E040E251E455
:101D400069817A818B819C810E94B41269AF7AAFDC
:101D50008BAF9CAF89AD9AADABADBCAD8D8F9E8F77
:101D6000AF8FB8A36D8D7E8D8F8D98A10E940B12C1
:101D700021966CAF7DAF8EAF9FAF2197ADADBEAD5D
:101D8000BA87A98710C080E991E09C878B878B85F3
:101D90009C850197F1F79C878B87000089859A8540
:101DA00001979A87898789859A85892B61F71DC054
:101DB0006D817E818F8198850E940B1225966CAF74
:101DC0007DAF8EAF9FAF25972396EEADFFAD2397E6
:101DD000FA87E98789859A859E878D878D859E8577
:101DE0000197F1F79E878D8700000000CC5BDF4FE5
:101DF0000FB6F894DEBF0FBECDBFDF91CF9108952F
:101E0000CF93DF9300D000D0CDB7DEB79C838B8318
:101E10001A8219820FC089819A812B813C81820F9D
:101E2000931FFC0180810E94030789819A8101969A
:101E30009A83898389819A812B813C81820F931FA8
:101E4000FC018081882339F7000000000F900F907B
:101E50000F900F90DF91CF910895CF93DF9300D033
:101E600000D0CDB7DEB789836A835C834B838981D9
:101E7000882349F48A81803134F48A818F708068A4
:101E80000E9453000BC08981813041F48A818031E6
:101E90002CF48A818F70806C0E9453008B819C810E
:101EA0000E94000F00000F900F900F900F90DF9195
:101EB000CF910895CF93DF93CDB7DEB7A2970FB63A
:101EC000F894DEBF0FBECDBF81E00E94530080E0DA
:101ED00090E0A0E0B0E489839A83AB83BC8320E0E8
:101EE00030E04AE755E469817A818B819C810E94C8
:101EF000B4126B8B7C8B8D8B9E8B8B899C89AD896F
:101F0000BE898D839E83AF83B88720E030E040E8B0
:101F10005FE36D817E818F8198850E949411882373
:101F20002CF481E090E09A87898754C020E03FEF4D
:101F30004FE757E46D817E818F8198850E94AF12B3
:101F40001816D4F520E030E040E251E469817A814E
:101F50008B819C810E94B4126F8B788F898F9A8FAE
:101F60008F89988DA98DBA8D8F87988BA98BBA8B05
:101F70006F85788989899A890E940B126B8F7C8F73
:101F80008D8F9E8FAB8DBC8DBA87A98710C080E9DD
:101F900091E09C878B878B859C850197F1F79C87C7
:101FA0008B87000089859A8501979A87898789851B
:101FB0009A85892B61F719C06D817E818F81988503
:101FC0000E940B126F8F78A389A39AA38F8D98A17B
:101FD0009A87898789859A859E878D878D859E8535
:101FE0000197F1F79E878D87000080E80E945300DB
:101FF0000000A2960FB6F894DEBF0FBECDBFDF91F2
:10200000CF910895CF93DF93CDB7DEB70E942C1107
:102010000E94B30D81EC90E0FC01208181EC90E006
:102020002068FC012083789480E091E00E94741184
:10203000FFCF1F920F920FB60F9211242F933F9351
:102040004F935F936F937F938F939F93AF93BF93C0
:10205000EF93FF93CF93DF93CDB7DEB7A497DEBFA7
:10206000CDBF80911D01882339F11A82198212C0D7
:1020700089819A810196825F9E4FDC012C91898132
:102080009A81825F9E4FFC01208389819A8101960B
:102090009A83898389819A810F9754F386EC90E023
:1020A000DC018C9180931D0181E00E9453008EE041
:1020B00091E00E94000F24C00E945A0F86EC90E02D
:1020C000FC01208180910C0190910D01825F9E4F57
:1020D000DC012C9380910C0190910D01019690935D
:1020E0000D0180930C0180910C0190910D01982FAE
:1020F00080E9891B0E9453008EE091E00E94000F4E
:1021000080E090E0A6E9B3E48B839C83AD83BE833B
:1021100020E030E04AE755E46B817C818D819E812F
:102120000E94B4126D8B7E8B8F8B988F8D899E89C8
:10213000AF89B88D8F839887A987BA8720E030E070
:1021400040E85FE36F81788589859A850E949411C4
:1021500088232CF481E090E09C878B8754C020E09A
:102160003FEF4FE757E46F81788589859A850E9414
:10217000AF121816D4F520E030E040E251E46B8154
:102180007C818D819E810E94B412698F7A8F8B8FA2
:102190009C8F898D9A8DAB8DBC8D898B9A8BAB8BE7
:1021A000BC8B69897A898B899C890E940B126D8FFF
:1021B0007E8F8F8F98A3AD8DBE8DBC87AB8710C0EF
:1021C00080E991E09E878D878D859E850197F1F747
:1021D0009E878D8700008B859C8501979C878B87C8
:1021E0008B859C85892B61F719C06F8178858985DE
:1021F0009A850E940B1269A37AA38BA39CA3E9A1E1
:10220000FAA1FC87EB878B859C85988B8F878F85C0
:1022100098890197F1F7988B8F87000087E091E00C
:102220000E9474110000A4960FB6F894DEBF0FBE92
:10223000CDBFDF91CF91FF91EF91BF91AF919F9172
:102240008F917F916F915F914F913F912F910F905F
:102250000FBE0F901F901895CF93DF93CDB7DEB7C9
:1022600085EC90E0FC01108284EC90E027E6FC0114
:10227000208381EC90E028E1FC01208382EC90E057
:1022800026E0FC0120830000DF91CF910895CF93D9
:10229000DF93CDB7DEB7000080EC90E0FC018081D9
:1022A0008823D4F786EC90E0FC018081DF91CF9108
:1022B0000895CF93DF930F92CDB7DEB789830000E7
:1022C00080EC90E0FC018081882F90E0807299275B
:1022D000892BB1F386EC90E02981FC01208300007A
:1022E0000F90DF91CF910895CF93DF9300D0CDB7BA
:1022F000DEB79A8389830BC089819A81FC01808132
:102300000E94591189819A8101969A8389838981D2
:102310009A81FC018081882379F7000000000F90EA
:102320000F90DF91CF9108950E943A1208F481E056
:1023300008950E94AD110C9475120E946E1258F00F
:102340000E94671240F029F45F3F29F00C945E125E
:1023500051110C94A9120C9464120E94861268F315
:102360009923B1F3552391F3951B550BBB27AA274E
:1023700062177307840738F09F5F5F4F220F331F88
:10238000441FAA1FA9F335D00E2E3AF0E0E832D050
:1023900091505040E695001CCAF72BD0FE2F29D053
:1023A000660F771F881FBB1F261737074807AB0725
:1023B000B0E809F0BB0B802DBF01FF2793585F4F9A
:1023C0003AF09E3F510578F00C945E120C94A912DD
:1023D0005F3FE4F3983ED4F3869577956795B7957C
:1023E000F7959F5FC9F7880F911D9695879597F987
:1023F0000895E1E0660F771F881FBB1F6217730700
:102400008407BA0720F0621B730B840BBA0BEE1F14
:1024100088F7E09508950E948E1288F09F5798F0F3
:10242000B92F9927B751B0F0E1F0660F771F881FD9
:10243000991F1AF0BA95C9F714C0B13091F00E94F3
:10244000A812B1E008950C94A812672F782F88275E
:10245000B85F39F0B93FCCF3869577956795B3951A
:10246000D9F73EF490958095709561957F4F8F4F89
:102470009F4F0895990F0008550FAA0BE0E8FEEF53
:1024800016161706E807F907C0F012161306E40738
:10249000F50798F0621B730B840B950B39F40A2631
:1024A00061F0232B242B252B21F408950A2609F40F
:1024B000A140A6958FEF811D811D089597F99F6713
:1024C00080E870E060E008959FEF80EC08950024BC
:1024D0000A941616170618060906089500240A9489
:1024E00012161306140605060895092E0394000C0F
:1024F00011F4882352F0BB0F40F4BF2B11F460FF9E
:1025000004C06F5F7F4F8F4F9F4F089557FD9058C6
:10251000440F551F59F05F3F71F04795880F97FBA7
:10252000991F61F09F3F79F0879508951216130661
:102530001406551FF2CF4695F1DF08C01616170690
:102540001806991FF1CF86957105610508940895C5
:10255000E894BB2766277727CB0197F908950E9457
:102560003A1208F48FEF08950E94C7120C94751266
:102570000E94671238F00E946E1220F0952311F02D
:102580000C945E120C94641211240C94A9120E94F3
:10259000861270F3959FC1F3950F50E0551F629F0F
:1025A000F001729FBB27F00DB11D639FAA27F00DAC
:1025B000B11DAA1F649F6627B00DA11D661F829FD3
:1025C0002227B00DA11D621F739FB00DA11D621FB8
:1025D000839FA00D611D221F749F3327A00D611DD5
:1025E000231F849F600D211D822F762F6A2F1124B7
:1025F0009F5750409AF0F1F088234AF0EE0FFF1FEA
:10260000BB1F661F771F881F91505040A9F79E3F40
:10261000510580F00C945E120C94A9125F3FE4F314
:10262000983ED4F3869577956795B795F795E79596
:102630009F5FC1F7FE2B880F911D9695879597F99F
:062640000895F894FFCF9D
:0C264600526561647921004F4B210000B7
:00000001FF
